{
    "contractName": "Todo",
    "abi": [
        {
            "anonymous": false,
            "inputs": [
                {
                    "indexed": false,
                    "internalType": "uint256",
                    "name": "id",
                    "type": "uint256"
                },
                {
                    "indexed": false,
                    "internalType": "string",
                    "name": "data",
                    "type": "string"
                }
            ],
            "name": "TaskCreated",
            "type": "event"
        },
        {
            "inputs": [],
            "name": "taskCount",
            "outputs": [
                {
                    "internalType": "uint256",
                    "name": "",
                    "type": "uint256"
                }
            ],
            "stateMutability": "view",
            "type": "function"
        },
        {
            "inputs": [
                {
                    "internalType": "uint256",
                    "name": "",
                    "type": "uint256"
                }
            ],
            "name": "tasks",
            "outputs": [
                {
                    "internalType": "uint256",
                    "name": "id",
                    "type": "uint256"
                },
                {
                    "internalType": "string",
                    "name": "data",
                    "type": "string"
                }
            ],
            "stateMutability": "view",
            "type": "function"
        },
        {
            "inputs": [
                {
                    "internalType": "string",
                    "name": "_content",
                    "type": "string"
                }
            ],
            "name": "createTask",
            "outputs": [],
            "stateMutability": "nonpayable",
            "type": "function"
        },
        {
            "inputs": [
                {
                    "internalType": "uint256",
                    "name": "_id",
                    "type": "uint256"
                }
            ],
            "name": "getTask",
            "outputs": [
                {
                    "internalType": "uint256",
                    "name": "",
                    "type": "uint256"
                },
                {
                    "internalType": "string",
                    "name": "",
                    "type": "string"
                }
            ],
            "stateMutability": "view",
            "type": "function"
        }
    ],
    "bytecode": "0x60806040525f600155348015610013575f80fd5b50610936806100215f395ff3fe608060405234801561000f575f80fd5b506004361061004a575f3560e01c8063111002aa1461004e5780631d65e77e1461006a5780638d9776721461009b578063b6cb58a5146100cc575b5f80fd5b6100686004803603810190610063919061044e565b6100ea565b005b610084600480360381019061007f91906104c8565b610189565b60405161009292919061057c565b60405180910390f35b6100b560048036038101906100b091906104c8565b610256565b6040516100c392919061057c565b60405180910390f35b6100d46102fb565b6040516100e191906105aa565b60405180910390f35b60015f8154809291906100fc906105f0565b919050555060405180604001604052806001548152602001828152505f8060015481526020019081526020015f205f820151815f015560208201518160010190816101479190610831565b509050507fa5ed9e6226c584326505694539c95cb0e3238ae09bcda5a65c00bbfdab1c66626001548260405161017e92919061057c565b60405180910390a150565b5f60605f805f8581526020019081526020015f206040518060400160405290815f82015481526020016001820180546101c190610664565b80601f01602080910402602001604051908101604052809291908181526020018280546101ed90610664565b80156102385780601f1061020f57610100808354040283529160200191610238565b820191905f5260205f20905b81548152906001019060200180831161021b57829003601f168201915b5050505050815250509050805f015181602001519250925050915091565b5f602052805f5260405f205f91509050805f01549080600101805461027a90610664565b80601f01602080910402602001604051908101604052809291908181526020018280546102a690610664565b80156102f15780601f106102c8576101008083540402835291602001916102f1565b820191905f5260205f20905b8154815290600101906020018083116102d457829003601f168201915b5050505050905082565b60015481565b5f604051905090565b5f80fd5b5f80fd5b5f80fd5b5f80fd5b5f601f19601f8301169050919050565b7f4e487b71000000000000000000000000000000000000000000000000000000005f52604160045260245ffd5b6103608261031a565b810181811067ffffffffffffffff8211171561037f5761037e61032a565b5b80604052505050565b5f610391610301565b905061039d8282610357565b919050565b5f67ffffffffffffffff8211156103bc576103bb61032a565b5b6103c58261031a565b9050602081019050919050565b828183375f83830152505050565b5f6103f26103ed846103a2565b610388565b90508281526020810184848401111561040e5761040d610316565b5b6104198482856103d2565b509392505050565b5f82601f83011261043557610434610312565b5b81356104458482602086016103e0565b91505092915050565b5f602082840312156104635761046261030a565b5b5f82013567ffffffffffffffff8111156104805761047f61030e565b5b61048c84828501610421565b91505092915050565b5f819050919050565b6104a781610495565b81146104b1575f80fd5b50565b5f813590506104c28161049e565b92915050565b5f602082840312156104dd576104dc61030a565b5b5f6104ea848285016104b4565b91505092915050565b6104fc81610495565b82525050565b5f81519050919050565b5f82825260208201905092915050565b5f5b8381101561053957808201518184015260208101905061051e565b5f8484015250505050565b5f61054e82610502565b610558818561050c565b935061056881856020860161051c565b6105718161031a565b840191505092915050565b5f60408201905061058f5f8301856104f3565b81810360208301526105a18184610544565b90509392505050565b5f6020820190506105bd5f8301846104f3565b92915050565b7f4e487b71000000000000000000000000000000000000000000000000000000005f52601160045260245ffd5b5f6105fa82610495565b91507fffffffffffffffffffffffffffffffffffffffffffffffffffffffffffffffff820361062c5761062b6105c3565b5b600182019050919050565b7f4e487b71000000000000000000000000000000000000000000000000000000005f52602260045260245ffd5b5f600282049050600182168061067b57607f821691505b60208210810361068e5761068d610637565b5b50919050565b5f819050815f5260205f209050919050565b5f6020601f8301049050919050565b5f82821b905092915050565b5f600883026106f07fffffffffffffffffffffffffffffffffffffffffffffffffffffffffffffffff826106b5565b6106fa86836106b5565b95508019841693508086168417925050509392505050565b5f819050919050565b5f61073561073061072b84610495565b610712565b610495565b9050919050565b5f819050919050565b61074e8361071b565b61076261075a8261073c565b8484546106c1565b825550505050565b5f90565b61077661076a565b610781818484610745565b505050565b5b818110156107a4576107995f8261076e565b600181019050610787565b5050565b601f8211156107e9576107ba81610694565b6107c3846106a6565b810160208510156107d2578190505b6107e66107de856106a6565b830182610786565b50505b505050565b5f82821c905092915050565b5f6108095f19846008026107ee565b1980831691505092915050565b5f61082183836107fa565b9150826002028217905092915050565b61083a82610502565b67ffffffffffffffff8111156108535761085261032a565b5b61085d8254610664565b6108688282856107a8565b5f60209050601f831160018114610899575f8415610887578287015190505b6108918582610816565b8655506108f8565b601f1984166108a786610694565b5f5b828110156108ce578489015182556001820191506020850194506020810190506108a9565b868310156108eb57848901516108e7601f8916826107fa565b8355505b6001600288020188555050505b50505050505056fea26469706673582212200e554d521ce605b43da09a42afb52ff5bdd6f1f3f9ad25ffd464dd47630088eb64736f6c63430008150033",
    "immutableReferences": {},
    "source": "// SPDX-License-Identifier: GPL-3.0\r\n\r\npragma solidity >=0.7.0 <0.9.0;\r\n\r\ncontract Todo {\r\n    struct TodoItems {\r\n        uint256 id;\r\n        string data;\r\n    }\r\n\r\n    mapping(uint256 => TodoItems) public tasks;\r\n    uint256 public taskCount = 0;\r\n\r\n    event TaskCreated(uint256 id, string data);\r\n\r\n    function createTask(string memory _content) public {\r\n    taskCount++;\r\n    tasks[taskCount] = TodoItems(taskCount, _content);\r\n    emit TaskCreated(taskCount, _content);\r\n}\r\n\r\n\r\nfunction getTask(uint256 _id) public view returns (uint256, string memory) {\r\n        TodoItems memory task = tasks[_id];\r\n        return (task.id, task.data);\r\n    }\r\n\r\n\r\n}",
    "sourcePath": "D:\\DevDrive\\drift-do-sever\\contracts\\Todo.sol",
    "compiler": {
        "name": "solc",
        "version": "0.8.21+commit.d9974bed.Emscripten.clang"
    },
    "schemaVersion": "3.4.16",
    "updatedAt": "2024-07-05T18:46:36.079Z",
    "devdoc": {
        "kind": "dev",
        "methods": {},
        "version": 1
    },
    "userdoc": {
        "kind": "user",
        "methods": {},
        "version": 1
    }
}